{
  "_format": "hh-sol-artifact-1",
  "contractName": "Todo",
  "sourceName": "contracts/Todo.sol",
  "abi": [
    {
      "anonymous": false,
      "inputs": [
        {
          "indexed": false,
          "internalType": "uint256",
          "name": "id",
          "type": "uint256"
        },
        {
          "indexed": false,
          "internalType": "uint256",
          "name": "date",
          "type": "uint256"
        },
        {
          "indexed": false,
          "internalType": "string",
          "name": "content",
          "type": "string"
        },
        {
          "indexed": false,
          "internalType": "string",
          "name": "author",
          "type": "string"
        },
        {
          "indexed": false,
          "internalType": "bool",
          "name": "done",
          "type": "bool"
        }
      ],
      "name": "TaskCreated",
      "type": "event"
    },
    {
      "anonymous": false,
      "inputs": [
        {
          "indexed": false,
          "internalType": "uint256",
          "name": "id",
          "type": "uint256"
        },
        {
          "indexed": false,
          "internalType": "bool",
          "name": "done",
          "type": "bool"
        },
        {
          "indexed": false,
          "internalType": "uint256",
          "name": "date",
          "type": "uint256"
        }
      ],
      "name": "TaskStatusToggled",
      "type": "event"
    },
    {
      "inputs": [
        {
          "internalType": "string",
          "name": "_content",
          "type": "string"
        },
        {
          "internalType": "string",
          "name": "_author",
          "type": "string"
        }
      ],
      "name": "createTask",
      "outputs": [],
      "stateMutability": "nonpayable",
      "type": "function"
    },
    {
      "inputs": [],
      "name": "getTasks",
      "outputs": [
        {
          "components": [
            {
              "internalType": "uint256",
              "name": "id",
              "type": "uint256"
            },
            {
              "internalType": "uint256",
              "name": "date",
              "type": "uint256"
            },
            {
              "internalType": "string",
              "name": "content",
              "type": "string"
            },
            {
              "internalType": "string",
              "name": "author",
              "type": "string"
            },
            {
              "internalType": "bool",
              "name": "done",
              "type": "bool"
            },
            {
              "internalType": "uint256",
              "name": "dateComplete",
              "type": "uint256"
            }
          ],
          "internalType": "struct Todo.Task[]",
          "name": "",
          "type": "tuple[]"
        }
      ],
      "stateMutability": "view",
      "type": "function"
    },
    {
      "inputs": [
        {
          "internalType": "uint256",
          "name": "",
          "type": "uint256"
        }
      ],
      "name": "tasks",
      "outputs": [
        {
          "internalType": "uint256",
          "name": "id",
          "type": "uint256"
        },
        {
          "internalType": "uint256",
          "name": "date",
          "type": "uint256"
        },
        {
          "internalType": "string",
          "name": "content",
          "type": "string"
        },
        {
          "internalType": "string",
          "name": "author",
          "type": "string"
        },
        {
          "internalType": "bool",
          "name": "done",
          "type": "bool"
        },
        {
          "internalType": "uint256",
          "name": "dateComplete",
          "type": "uint256"
        }
      ],
      "stateMutability": "view",
      "type": "function"
    },
    {
      "inputs": [
        {
          "internalType": "uint256",
          "name": "id",
          "type": "uint256"
        }
      ],
      "name": "toggleDone",
      "outputs": [],
      "stateMutability": "nonpayable",
      "type": "function"
    }
  ],
  "bytecode": "0x608060405234801561001057600080fd5b50610ed8806100206000396000f3fe608060405234801561001057600080fd5b506004361061004c5760003560e01c806304a87e3814610051578063292a45851461006f5780638d9776721461008b578063d81ef739146100c0575b600080fd5b6100596100dc565b6040516100669190610983565b60405180910390f35b61008960048036038101906100849190610aee565b6102f8565b005b6100a560048036038101906100a09190610b92565b610418565b6040516100b796959493929190610c27565b60405180910390f35b6100da60048036038101906100d59190610b92565b610571565b005b6060600060015467ffffffffffffffff8111156100fc576100fb6109c3565b5b60405190808252806020026020018201604052801561013557816020015b610122610689565b81526020019060019003908161011a5790505b50905060005b6001548110156102f0576000808281526020019081526020016000206040518060c0016040529081600082015481526020016001820154815260200160028201805461018690610cc5565b80601f01602080910402602001604051908101604052809291908181526020018280546101b290610cc5565b80156101ff5780601f106101d4576101008083540402835291602001916101ff565b820191906000526020600020905b8154815290600101906020018083116101e257829003601f168201915b5050505050815260200160038201805461021890610cc5565b80601f016020809104026020016040519081016040528092919081815260200182805461024490610cc5565b80156102915780601f1061026657610100808354040283529160200191610291565b820191906000526020600020905b81548152906001019060200180831161027457829003601f168201915b505050505081526020016004820160009054906101000a900460ff161515151581526020016005820154815250508282815181106102d2576102d1610cf7565b5b602002602001018190525080806102e890610d55565b91505061013b565b508091505090565b6040518060c001604052806001548152602001428152602001838152602001828152602001600015158152602001600081525060008060015481526020019081526020016000206000820151816000015560208201518160010155604082015181600201908051906020019061036f9291906106c1565b50606082015181600301908051906020019061038c9291906106c1565b5060808201518160040160006101000a81548160ff02191690831515021790555060a082015181600501559050507fb322bdd3250d405f7845d27fa1f0753f8f7e18e40886bc254b89005c3e9c032460015442848460006040516103f4959493929190610d9e565b60405180910390a16001600081548092919061040f90610d55565b91905055505050565b600060205280600052604060002060009150905080600001549080600101549080600201805461044790610cc5565b80601f016020809104026020016040519081016040528092919081815260200182805461047390610cc5565b80156104c05780601f10610495576101008083540402835291602001916104c0565b820191906000526020600020905b8154815290600101906020018083116104a357829003601f168201915b5050505050908060030180546104d590610cc5565b80601f016020809104026020016040519081016040528092919081815260200182805461050190610cc5565b801561054e5780601f106105235761010080835404028352916020019161054e565b820191906000526020600020905b81548152906001019060200180831161053157829003601f168201915b5050505050908060040160009054906101000a900460ff16908060050154905086565b60008060008381526020019081526020016000206000015414156105ca576040517f08c379a00000000000000000000000000000000000000000000000000000000081526004016105c190610e4b565b60405180910390fd5b600080600083815260200190815260200160002090508060040160009054906101000a900460ff16158160040160006101000a81548160ff0219169083151502179055508060040160009054906101000a900460ff1661062b57600061062d565b425b81600501819055507fcb1ceae718a6ae11d5daf00e292e318717e0acf2d326ed670df0e5ff67ba5000828260040160009054906101000a900460ff16836005015460405161067d93929190610e6b565b60405180910390a15050565b6040518060c0016040528060008152602001600081526020016060815260200160608152602001600015158152602001600081525090565b8280546106cd90610cc5565b90600052602060002090601f0160209004810192826106ef5760008555610736565b82601f1061070857805160ff1916838001178555610736565b82800160010185558215610736579182015b8281111561073557825182559160200191906001019061071a565b5b5090506107439190610747565b5090565b5b80821115610760576000816000905550600101610748565b5090565b600081519050919050565b600082825260208201905092915050565b6000819050602082019050919050565b6000819050919050565b6107a381610790565b82525050565b600081519050919050565b600082825260208201905092915050565b60005b838110156107e35780820151818401526020810190506107c8565b838111156107f2576000848401525b50505050565b6000601f19601f8301169050919050565b6000610814826107a9565b61081e81856107b4565b935061082e8185602086016107c5565b610837816107f8565b840191505092915050565b60008115159050919050565b61085781610842565b82525050565b600060c083016000830151610875600086018261079a565b506020830151610888602086018261079a565b50604083015184820360408601526108a08282610809565b915050606083015184820360608601526108ba8282610809565b91505060808301516108cf608086018261084e565b5060a08301516108e260a086018261079a565b508091505092915050565b60006108f9838361085d565b905092915050565b6000602082019050919050565b600061091982610764565b610923818561076f565b93508360208202850161093585610780565b8060005b85811015610971578484038952815161095285826108ed565b945061095d83610901565b925060208a01995050600181019050610939565b50829750879550505050505092915050565b6000602082019050818103600083015261099d818461090e565b905092915050565b6000604051905090565b600080fd5b600080fd5b600080fd5b600080fd5b7f4e487b7100000000000000000000000000000000000000000000000000000000600052604160045260246000fd5b6109fb826107f8565b810181811067ffffffffffffffff82111715610a1a57610a196109c3565b5b80604052505050565b6000610a2d6109a5565b9050610a3982826109f2565b919050565b600067ffffffffffffffff821115610a5957610a586109c3565b5b610a62826107f8565b9050602081019050919050565b82818337600083830152505050565b6000610a91610a8c84610a3e565b610a23565b905082815260208101848484011115610aad57610aac6109be565b5b610ab8848285610a6f565b509392505050565b600082601f830112610ad557610ad46109b9565b5b8135610ae5848260208601610a7e565b91505092915050565b60008060408385031215610b0557610b046109af565b5b600083013567ffffffffffffffff811115610b2357610b226109b4565b5b610b2f85828601610ac0565b925050602083013567ffffffffffffffff811115610b5057610b4f6109b4565b5b610b5c85828601610ac0565b9150509250929050565b610b6f81610790565b8114610b7a57600080fd5b50565b600081359050610b8c81610b66565b92915050565b600060208284031215610ba857610ba76109af565b5b6000610bb684828501610b7d565b91505092915050565b610bc881610790565b82525050565b600082825260208201905092915050565b6000610bea826107a9565b610bf48185610bce565b9350610c048185602086016107c5565b610c0d816107f8565b840191505092915050565b610c2181610842565b82525050565b600060c082019050610c3c6000830189610bbf565b610c496020830188610bbf565b8181036040830152610c5b8187610bdf565b90508181036060830152610c6f8186610bdf565b9050610c7e6080830185610c18565b610c8b60a0830184610bbf565b979650505050505050565b7f4e487b7100000000000000000000000000000000000000000000000000000000600052602260045260246000fd5b60006002820490506001821680610cdd57607f821691505b60208210811415610cf157610cf0610c96565b5b50919050565b7f4e487b7100000000000000000000000000000000000000000000000000000000600052603260045260246000fd5b7f4e487b7100000000000000000000000000000000000000000000000000000000600052601160045260246000fd5b6000610d6082610790565b91507fffffffffffffffffffffffffffffffffffffffffffffffffffffffffffffffff821415610d9357610d92610d26565b5b600182019050919050565b600060a082019050610db36000830188610bbf565b610dc06020830187610bbf565b8181036040830152610dd28186610bdf565b90508181036060830152610de68185610bdf565b9050610df56080830184610c18565b9695505050505050565b7f7461736b20646f6573206e6f7420657869737400000000000000000000000000600082015250565b6000610e35601383610bce565b9150610e4082610dff565b602082019050919050565b60006020820190508181036000830152610e6481610e28565b9050919050565b6000606082019050610e806000830186610bbf565b610e8d6020830185610c18565b610e9a6040830184610bbf565b94935050505056fea26469706673582212204386cd77ad157b33b9660a2cfdd325d6e1c3f5d551b7109b4b1f65e7e57f2f5664736f6c63430008090033",
  "linkReferences": {},
  "deployedLinkReferences": {}
}